S011000073686966745F6C69622E737265635F
S11300000C942A000C9434000C9434000C943400A6
S11300100C9434000C9434000C9434000C9434008C
S11300200C9434000C9434000C9434000C9434007C
S11300300C9434000C9434000C9434000C9434006C
S11300400C9434000C9434000C9434000C9434005C
S11300500C94340011241FBECFE5D4E0DEBFCDBF25
S11300600E9436000C944B000C9400008FEF8ABB66
S113007087BB84BBD89AA8988FE39CE90197F1F7D2
S113008000C00000D898A89A8FE39CE90197F1F783
S10D009000C00000EFCFF894FFCF8A
S9030000FC
